:040000000C94540008
:100004000C9400000C9400000C9418010C94000053
:100014000C9400000C9400000C9400000C9400005C
:100024000C94B0000C9400000C9400000C9400009C
:100034000C9400000C9400000C9400000C948400B8
:100044000C9400000C9400000C9400000C9400002C
:100054001027E80364000A000100001000011000EA
:1000640001006F7574736964653A256420696E7361
:100074006964653A25640046616E3A2564202074FB
:10008400656D703A2564000080C001002D4E414E1C
:1000940000494E46000002006C028C00010073020D
:1000A4008E000000F894EE27ECBBF1E0FBBFEBBF41
:1000B400E5BFF8E1F1BDE1BD8DE0A2E0BB27ED9322
:1000C4008A95E9F780E098E0A0E6ED930197E9F7D7
:1000D400EAE9F0E085919591009761F0A591B591D9
:1000E40005901590BF01F00105900D920197E1F77D
:1000F400FB01F0CFEFE5EDBFE8E0EEBFC0E6D2E0F4
:100104000C943A018A93AA93BA93EA93FA93EFB7B9
:10011400EA93E0916B02A3E6B2E0F0E0EE0FFF1F7A
:10012400AE0FBF1FE4B1F5B1ED93FC93A0916B0248
:10013400AF5FA0936B02A43018F0E0E0E0936B0291
:10014400E0916B02E7B983E08A95F1F7E991EFBF9B
:10015400F991E991B991A99189911895EA93FA9342
:10016400EFB7EA935394E5E0E515E1F4E091630217
:10017400F09164020E94C4047E2EE0916502F09125
:1001840066020E94C4046E2EE0916702F091680238
:100194000E94C4049E2EE0916902F0916A020E94BA
:1001A400C4048E2EE991EFBFF991E9911895A898AE
:1001B4000E946F049C9902C0E7E04E2E9D9902C0F4
:1001C400E8E04E2E9E9902C0E9E04E2EA89AA99826
:1001D4000E946F049C9902C0E4E04E2E9D9902C0D7
:1001E400E5E04E2E9E9902C0E6E04E2EA99AAA980A
:1001F4000E946F049C9902C0E1E04E2E9D9902C0BA
:10020400E2E04E2E9E9902C0E3E04E2E9F9902C07A
:10021400EDE24E2EAA9AAB980E946F049D9B442453
:100224009F9902C0EBE24E2EAB9A08950A921A925D
:10023400FA926A937A938A939A93AA93BA93EA93D3
:10024400FA93EFB7EA93F894EFEFE2BBB0DFE0EF95
:10025400E2BB7894E991EFBFF991E991B991A99141
:100264009991899179916991F990199009901895CA
:10027400A89717E104E130E021E050E0EFEFEBBB99
:10028400E0E0EABBE8BBE7BBE0EFE5BBEFE0E4BBE3
:10029400E0E0E2BBEFEFE1BBE0E0E3BFE2BFECBFD5
:1002A400EFBDE5E4EEBDE0E0EDBDECBDE7BDE6BDD0
:1002B400EBBDEABDE9BDE8BDE2BDE5BDE4BDE3BD1E
:1002C400EBB7E062EBBFE0E0E5BFE0E4E4BFE0E20F
:1002D400EABFE4E0E9BFE0E0EAB9E7B9EBEAE6B98E
:1002E400E0B7EF71E0BFE0B7E06CE0BFE0E0EDB98C
:1002F400E6BFA4E1FDD0BDD07894043101F10D3204
:1003040011F00B3209F414C0E32FF0E0E05AFD4F72
:1003140000833F5F323059F430E0E0916002AAE09C
:10032400EA02F001AE2FE0916102EA0F1E2F07C02E
:100334000B3211F41F5F03C00D3209F41150E92D83
:10034400E60DE80DBE2EAB2DB0E0E3E0F0E00E9438
:10035400DC04AE2EA12FBB27E52FF0E0AE1BBF0BB4
:1003640011970CF051E0A52FBB27E12FF0E0AE1B55
:10037400BF0B12970CF450E0A62DA9190E9450044B
:10038400DE2EA62DA8190E945004CE2EA92DA81940
:100394000E945004E0936202E2E0ED1530F0EC15A7
:1003A40020F0A0916202A33008F022E0E0E0EA939A
:1003B400A0E04ED0FE017496FA93EA93E6E6F0E0EC
:1003C400FA93EA93E72D0E947304EA2D0E947304C2
:1003D40088E00E941C042C96DE01549678D0E0E05C
:1003E400EA93A1E035D0FE01FA93EA93EBE7F0E05B
:1003F400FA93EA93E22F0E947304E12F0E9473049C
:1004040088E00E941C042C96DE0161D076CFFFCFD9
:10041400AA93E2B3EF70AE2FE881E07FEA2BE2BB50
:1004240082E08A95F1F7929A82E08A95F1F79298A0
:1004340082E08A95F1F788C0AA93A881E9DFE88170
:10044400E295E883A881E4DF81E18A95F1F77CC035
:10045400AA93E881F0E0E459FD4FE081A981AE0F51
:10046400EBDFE981E0937002E881E0937102229668
:100474000895A2E00E947904ACE0DEDFA1E00E94CE
:100484007904E0E0E0937102E09370020895AA9386
:10049400A881AA3031F0E0917202A0917002AE17E7
:1004A40060F0E0E0EA93A0917102AF5FA093710263
:1004B400CFDFA881AA3009F447C0E0917002EF5F52
:1004C400E0937002909AA881B7DF90983DC0BA93E8
:1004D400AA931A93A981BA81ED91A983BA831E2F95
:1004E400E03019F0A12FD3DFF5CF188123960895BA
:1004F400AA93E1B3E06FE1BB8A9A889A899A9298A9
:1005040090989198E881E0937202E058E0936E022B
:10051400E881E054E0936F02A4E1B0E00E94B204E9
:100524000E947F040E947F040E947F04A0E270DF87
:1005340081E28A95F1F7A8E27FDFA4E07DDFA5E8F8
:100544007BDFA6E079DF95DF21960895BA93AA931D
:100554001A930A93AA81BB8112960E94EF043097E2
:1005640059F1AA81BB8114960E94EF048F01309740
:1005740061F00230E0E01E0798F0F80131978F0136
:10058400AA81BB811496ED93FC93AA81BB81129638
:10059400ED91FD913196FE93EE933197AC81A0835A
:1005A400AA81BB810E94EF04FF232AF0ED91FD9103
:1005B4003196FE93EE9306C0AA81BB81EFEFFFEF65
:1005C400ED93FC931981088125960895BA93AA9313
:1005D40026970E94FC0410E0AC85BD85E0E0F0E0C5
:1005E400ED93FC93EA89FB893196EA8BFB8B319777
:1005F400E4912E2FE03009F415C1E12FE03039F4F5
:10060400253211F411E002C00E9486040AC1E130CF
:10061400A9F4253219F40E94860402C112E040E0D4
:1006240000E02D3211F401E0FCC02B3211F44BE256
:10063400F8C0203211F440E2F4C002C0E23039F4D0
:1006440050E013E0203311F40068EBC003C0E33042
:1006540009F0E7C0203310F02A3308F007C0AAE0FD
:100664005A9F502DE22FE0535E0FDBC0E22FE3369A
:1006740049F40E948D04E889F989A481AA930E940F
:100684009304CEC0E33741F40E948D040E94990480
:100694000E9456041E2F0AC0E03761F40E948D04A4
:1006A4000E9499040E9462041E2F086002600F7762
:1006B40030E034C0E43611F0E93611F4046002C0CD
:1006C400E53731F4E4E5F0E0EE83FF8315E00CC098
:1006D400E83511F4086003C0E83709F0A1C0EEE57D
:1006E400F0E0EE83FF8314E002FF14C00E948D0447
:1006F4000E94A304AB85AA233AF4EA85FB850E94F1
:10070400C004EA87FB874DE2403011F01F5F01C04F
:100714000B7F04C00E948D040E94A30400FD11C03D
:10072400151778F407FF08C002FF04C00B7F242FBD
:10073400115001C020E301C020E20E948604515000
:10074400EFCF312F01FF17C03030A1F003FF06C0F7
:10075400EE81FF812591EE83FF8305C0AE81BF81C9
:100764002D91AE83BF830E948604503009F051500E
:100774003150EACF4BC020E3EE81FF810E94F304A5
:10078400E887F987EE81FF813296EE83FF83E8855F
:10079400F985AA85BB85AE17BF0750F02F5FA885E2
:1007A400B985EA85FB85EA1BFB0BEA87FB87EFCF5C
:1007B4002A3328F003FF02C0295F01C0295D04FD2C
:1007C4001AC0213320F4A885B985119709F409C00A
:1007D400531710F000FF01C013C020E207FF0BC045
:1007E40020E3006102FF07C00B7F4A930E94930439
:1007F400503009F051500E948604503009F0515095
:100804003150A885B985129708F0B5CF00FF08C00C
:10081400503031F05150E0E2EA930E949304F8CF53
:1008240010E0E0CEAC85BD850E94EF040E94030574
:1008340064960895FF92F82E26970E94FE040E9463
:10084400AB04309719F4EFEFFFEF23C0DE011696E7
:100854000E94BC048D010E94AB04EE83FF83E0E0A0
:10086400E887E987DE011A960E94BC040E94EF041F
:10087400FA93EA931A930A93E8EAF2E0FA93EA9372
:10088400DE011A96A3DE9F01AE81BF81E0E0EC9306
:10089400F9010E9405052A96FF900895AA93E9910B
:1008A400E0300AF4E1950895BA93AA93A991B99115
:1008B400EE27FF276D91662311F03196FBCF089543
:1008C400BA93AA93AA27BB27E991F991059000202E
:1008D40011F01196FBCFFD010895A2E0B0E00C9455
:1008E400B204FF27662777270E94F70408950E9421
:1008F4001E02A3E0B0E00C94B204A0E30E940A023A
:1009040081E28A95F1F708952A93AD85BE85EF8536
:10091400F88909950895E889F9893497E88BF98B62
:100924000895AD85BE85EF85F88909950895A88950
:10093400B98914960E94EF04EE83FF83AE81BF81D0
:100944000895A889B98914960E94EF04EA87FB8761
:100954000895DE011C960E94BC040E94EF040895D1
:10096400109639F08AEF90E00197F1F7A895119766
:10097400C9F708950024AF0DB01D0895F195E195D0
:10098400F0400895F695E795F695E79508950024C7
:10099400112490E1AA0FBB1F001C111C0E1A1F0A80
:1009A40018F40E0E1F1E01C0A1609A9599F7FD015F
:1009B400D001089504D0EBDF0EF4E0DF0895E8944D
:1009C400F7FF02C0DBDF6894B7FF06C0A095B095BF
:1009D400119600F8039400FA0895ED91FC91119793
:1009E40008950590F491E02D08957A936A93FA930B
:1009F400EA9308955A934A933A932A931A930A933B
:100A040008955D814C813B812A8119810881089573
:00000001FF
